:020000040800F2
:10000000980700209D010008E71700086316000804
:10001000E517000867040008651C000800000000E0
:10002000000000000000000000000000EB170008C6
:100030006105000800000000E9170008ED1700083E
:10004000B7010008B7010008B7010008B7010008B0
:10005000B7010008B7010008B7010008B7010008A0
:10006000B7010008B7010008B7010008B701000890
:10007000B701000889040008B7010008B7010008AB
:1000800095040008B7010008B7010008B70100088F
:10009000B7010008B7010008B7010008B701000860
:1000A000B7010008B7010008B7010008B701000850
:1000B000B7010008B7010008B7010008B701000840
:1000C000B7010008B7010008B7010008B701000830
:1000D000B7010008B7010008B7010008B701000820
:1000E000B7010008B7010008B7010008B701000810
:1000F000B7010008B7010008B7010008B701000800
:10010000B7010008B7010008B7010008B7010008EF
:10011000B7010008B7010008B7010008B7010008DF
:10012000B7010008B7010008A9040008B7010008DA
:10013000B7010008B7010008B7010008B7010008BF
:10014000B7010008B7010008B7010008B7010008AF
:10015000B7010008B7010008B7010008B70100089F
:10016000B7010008B7010008B7010008B70100088F
:10017000B7010008B7010008B7010008000000003F
:10018000B7010008B7010008DFF80CD000F0F8F85C
:1001900000480047A51E0008980700200648804731
:1001A00006480047FEE7FEE7FEE7FEE7FEE7FEE75C
:1001B000FEE7FEE7FEE7FEE7911800088901000868
:1001C0002DE9F05F0546002092469B46884606468C
:1001D000814640241BE0284641464746224600F01F
:1001E00087F853465A46C01A914110D31146184613
:1001F000224600F06EF82D1A67EB01084F462246A2
:100200000120002100F065F817EB00094E41201E87
:10021000A4F10104DFDC484631462A464346BDE8E6
:10022000F09FD2B201E000F8012B491EFBD27047CB
:100230000022F6E710B513460A4604461946FFF7B2
:10024000F0FF204610BD000070B50F4D00B92868C2
:10025000002412E00A4602E09E4203D0521C1378AA
:10026000002BF9D1DAB2224305D02BB124B1002101
:1002700000F8011B04E00446401C0678002EE9D17A
:100280002860204670BD00004800002070B506467A
:1002900001F00EFD046805460A220021304600F0F8
:1002A00037F82C6070BD30B50B4601460020202287
:1002B000012409E021FA02F59D4205D303FA02F573
:1002C000491B04FA02F52844151EA2F10102F1DCD3
:1002D00030BD202A04DB203A00FA02F100207047EA
:1002E0009140C2F1200320FA03F319439040704774
:1002F000202A04DB203A21FA02F00021704721FA7B
:1003000002F3D040C2F120029140084319467047E1
:100310002DE9F04791460F4680460446002614F822
:10032000015B2DB100F03EF80068405DC007F6D1DA
:100330002B2D02D02D2D18D0641E4A46394620465A
:1003400000F034F827B13968A14201D1C7F8008024
:1003500071054FF002040BD54042002803DD01F087
:10036000A7FC0460A007BDE8F08746F48066E4E7D8
:100370000028F8DA01F09CFC04606FF00040F2E71E
:10038000064C074D06E0E06840F0010394E80700E2
:1003900098471034AC42F6D3FFF7FAFE1422000857
:1003A0003422000800487047102200082DE9F05F51
:1003B00082460078002715468B460AF10104B946AB
:1003C000302801D09DB113E014F8010B01277828E3
:1003D00003D0582801D045B10AE00DB1102D07D146
:1003E0000027102514F8010B02E0082500E00A257B
:1003F0000026B0460EE005FB080005FB06F10127CC
:1004000001EB10461FFA80F8B6F5803F00D3B946DD
:1004100014F8010B294600F018F80028EBDABBF1BC
:10042000000F05D00FB1641E00E05446CBF8004029
:10043000B9F1000F06D001F03BFC02210160C81E9B
:10044000BDE8F09F48EA0640FAE73A2800D2303883
:1004500020F02002412A01D3A2F13700884201D3C3
:100460004FF0FF307047FEE7044900204881888143
:10047000034908600349086070470000000000203D
:1004800024040040240C0040014800F06DB8000036
:100490007402002010B501F0CDFDBDE81040014808
:1004A00000F062B83403002010B501F06FFDBDE824
:1004B0001040014800F058B8D40200200168182309
:1004C000CAB2103AB2FBF3F2054B6FF30901032AEB
:1004D0009B5CC36500D9091D816508467047000013
:1004E0006E21000810B5014600208B698A6A4FF022
:1004F000C07453B1B3F5005F15D072B1012A0CD0AE
:10050000022A0AD0032A09D104E01AB1012A06D02E
:10051000022A03D1C96AC90100D5012010BDC96AE8
:10052000A142FAD010BD002AF7D0012AF2D0022A47
:10053000F3D0032AF3D010BD30B50468256825F444
:1005400080252560046863608368402B036803D0BE
:1005500099600068C26030BD9A600068C16030BDBB
:10056000704772B6FEE700002DE9F84304464FF0ED
:100570000009CDF8009063484FF41651A56D00684E
:10058000B0FBF1F72E6894F85C10082000FA01F136
:1005900031420FD021680A6852070BD50A6822F051
:1005A00004020A6094F85C108840A860606D40F016
:1005B0000100606594F85C104FF0010808FA01F042
:1005C000304208D021684969090604D5A860606DE9
:1005D00040F00200606594F85C10042088403042CE
:1005E00008D021680968890704D5A860606D40F0CB
:1005F0000400606594F85C1010208840304218D0E8
:1006000021680968090714D5A860206801684903B2
:1006100004D50068000308D5A16C07E00168C9058E
:1006200003D4016821F008010160216C09B1204662
:10063000884794F85C1020208840304231D02168EF
:100640000968C9062DD5A86094F8350005282068EA
:10065000016806D0490347D5006800031DD4616CCA
:100660001CE021F0160101602068416921F0800141
:100670004161206C08B9A06C20B12068016821F0AC
:100680000801016094F85C103F208840A86084F85D
:10069000349084F83580216D1FE0E16B09B120466C
:1006A0008847606D00282BD0606DC00714D00520EE
:1006B00084F835002068016821F00101016000988C
:1006C000401C0090B84203D820680068C007F6D1EB
:1006D00084F8349084F83580E16C002910D001B0A2
:1006E0002046BDE8F04308470168C905D5D4016834
:1006F00021F01001016084F8349084F83580CCE753
:10070000BDE8F883440000202DE9F041044600F0E4
:10071000A5F906465CB1002584F83450022084F81F
:1007200035002068016821F0010101600DE0012021
:10073000BDE8F08100F092F9801B052805D9202042
:100740006065032084F83500F2E720680068C00780
:10075000F0D12268116820480140D4E90103184310
:10076000D4E903363343184363691843A369184334
:10077000E3691843236A18430843616A042903D1D3
:10078000D4E90B1319430843106020684069666A76
:1007900020F0070130460E43012704280CD1A06A3F
:1007A0000643E06A40B12046FFF79CFE20B140209E
:1007B000606584F83570BAE7206846612046FFF727
:1007C0007DFE94F85C203F2191408160656584F84E
:1007D00035700020ACE700003F8010F02DE9F041BB
:1007E0000446866D90F83400002501280DD00120C4
:1007F00084F8340094F835700020012F07D084F875
:10080000340002252846BDE8F0810220FBE70227DC
:1008100084F8357060652046FFF78EFE94F85C1012
:100820003F208840B0602068016841F016010160F7
:10083000206C20B12068016841F008010160206847
:10084000016841F001010160DCE7000070B5044679
:1008500000F004F90546601C02D004480078044406
:1008600000F0FCF8401BA042FAD370BD3800002015
:100870002DE9F84FDFF8B8A1002201250AF1040B99
:1008800003264FF00F090BF1040E00BF0B6805FAA9
:1008900002F42340A3426FD10F7907F00307012F21
:1008A00001D0022F16D187684FEA420806FA08FCE9
:1008B00027EA0C07D1F80CC00CFA08FC4CEA070C2C
:1008C000C0F808C04768A7430C79C4F300149440EB
:1008D0003C4344600C79E443A4070AD0C4684FEA5F
:1008E000420C06FA0CF7BC438F6807FA0CF7274353
:1008F000C7600C7904F00304022C12D1D40800EB79
:10090000840CDCF820405707FF0E09FA07F824EAA8
:100910000804D1F8108008FA07F848EA0408CCF86F
:10092000208004684FEA420C06FA0CF7BC430F79AA
:1009300007F0030707FA0CF7274307604C68E40049
:1009400070D53C4C276847F480472760246822F024
:10095000030704F480440094374C07EB040CDCF8E4
:10096000084897074FEA177809FA08F7BC43334F4E
:10097000B84202D1002724E054E0314FB84201D1FF
:1009800001271EE02F4FB84201D1022719E02E4F58
:10099000B84201D1032714E02C4FB84201D10427FB
:1009A0000FE02B4FB84201D105270AE0294FB8428A
:1009B00001D1062705E0284FB84201D1072700E002
:1009C000082707FA08F72743CCF80878DAF8004038
:1009D0005746D1F804C09C435FEACC3C00D51C4389
:1009E0003C60DBF800405F46D1F804C09C435FEAFE
:1009F0008C3C00D51C433C60DEF800407746D1F8C3
:100A000004C09C435FEACC2C00D51C433C60084FDB
:100A10000C373C68D1F804C09C435FEA8C2C00D5AD
:100A20001C433C60521C102AFFF430AFBDE8F88F25
:100A3000003C0140443802400030014000000240C8
:100A40000004024000080240000C02400010024076
:100A50000014024000180240001C02400148806857
:100A60007047000038000020024881680278114475
:100A700081607047380000200B4810B5016841F4D0
:100A800000710160016841F480610160016841F416
:100A900080710160032000F06FF8002000F006F87C
:100AA00000F024F8002010BD003C024070B50D4D50
:100AB00004464FF47A712878B1FBF0F00A490968CE
:100AC000B1FBF0F000F00AFB48B9102C07D200226D
:100AD0002146501E00F030F800206C6070BD0120EF
:100AE00070BD000038000020440000200A4808B50E
:100AF000016841F480410160006800F4804000908A
:100B00000548001F016841F080510160006800F055
:100B10008050009008BD000044380240002809DBE6
:100B200000F01F02012191404009800000F1E02007
:100B3000C0F8001170470000F0B40E4B1B680C4663
:100B4000C3F30223C3F10705042D00D90425191DA1
:100B5000072901D2002300E0DB1E012606FA05F179
:100B6000491E214099409E40761E16403143F0BCFC
:100B700001F08EB80CED00E0064900F007020868AD
:100B80004FF6FF03184040EA0220034A1043086072
:100B9000704700000CED00E00000FA052DE9F04779
:100BA0000E46050065D0DFF81481D8F80000F7B2D2
:100BB00000F00700B04207D288F80070D8F80000B3
:100BC00000F00700B04254D128683D4C810712D58F
:100BD000400703D5206840F4E050206028780007E3
:100BE00003D5206840F4604020602068A96820F0A8
:100BF000F000084320602878C0072DD0304968688D
:100C00000839012812D0022813D0032811D009680E
:100C1000890700292DDA216821F0030101432160B1
:100C2000FFF71CFF814641F2883A0EE0096889030C
:100C3000EFE709688901ECE7FFF710FFA0EB090176
:100C4000514502D90320BDE8F0872068696800F0AB
:100C50000C00B0EB810FEFD1D8F80010404601F046
:100C60000701B14207D90770006800F00700B042E1
:100C700001D00120E7E72878400705D52068E9681A
:100C800020F4E050084320602878000706D520684B
:100C9000296920F4604040EAC100206000F038F883
:100CA0002168084AC1F30311515CC8400649086035
:100CB00006480068FFF7FAFE0020C4E7003C024047
:100CC0000838024076210008440000203C00002043
:100CD0000448054900680968044AC1F38221515C4F
:100CE000C8407047440000200838024086210008B0
:100CF0000448054900680968044AC1F34231515C5F
:100D0000C84070474400002008380240862100088F
:100D1000154810B5006810F00C02144813D04110AB
:100D2000042A0FD0082A0ED10F4C241F22682368F2
:100D300002F03F025B0207D52068C0F38810A0FBD9
:100D4000010106E0084610BD2168C1F38811A1FB2E
:100D500000010023FFF734FA2168C1F30141491C67
:100D60004900B0FBF1F010BD083802400024F40047
:100D70002DE9F84F04006ED02078DFF84C93C007BF
:100D8000A9F104054AD009F104000168C1F3810109
:100D9000012908D00068C0F3810002280AD1D9F8DF
:100DA0000000400206D52868800337D56068002817
:100DB000E1D033E06068B0F5803F10D0B0F5A02FEF
:100DC000286810D020F480302860286820F4802023
:100DD00028606068A8B1FFF741FE06460DE028686C
:100DE00040F48030F4E740F480202860F7E700BF4B
:100DF000FFF734FE801B642873D828688003F7D57A
:100E00000CE0FFF72BFE064605E000BFFFF726FECD
:100E1000801B6428F0D828688003F7D42078DFF896
:100E2000AC8280074FF0000A3ED5A748001D01683C
:100E300011F00C0F08D00068C0F3810002280BD11C
:100E4000D9F80000400207D42868800716D5E0686A
:100E5000012800D112E033E1E068B8B10120C8F800
:100E60000000FFF7FBFD064605E000BFFFF7F6FDBB
:100E7000801B0228C0D828688007F7D52868216918
:100E800020F0F80040EAC10028600DE0C8F800A09A
:100E9000FFF7E4FD064604E0FFF7E0FD801B0228B3
:100EA0001FD828688007F7D42078000722D5864FFE
:100EB00087486169703771B101210160FFF7CEFD8C
:100EC000064604E0FFF7CAFD801B022809D83868EF
:100ED0008007F7D50EE0C0F800A0FFF7BFFD06467B
:100EE00005E082E0FFF7BAFD801B02287DD8386854
:100EF0008007F7D42078400768D5DFF8CCB1002709
:100F00000BF13C0BDBF80000C0000BD4DBF8001049
:100F100041F08051CBF80010DBF80000012700F011
:100F2000805000906B4E3068C00510D4306840F49B
:100F300080703060FFF792FD009005E0FFF78EFDB6
:100F40000099401A022850D83068C005F6D55E4E88
:100F5000A0686C3601280FD00528306810D020F02A
:100F600001003060306820F004003060A068B8B143
:100F7000FFF774FD00900FE0306840F00100F4E7E7
:100F800040F004003060F7E7FFF768FD0099411A70
:100F900041F28830814266D830688007F4D50EE08F
:100FA000FFF75CFD009007E0FFF758FD0099411A3C
:100FB00041F28830814256D830688007F4D42FB18E
:100FC000DBF8001021F08051CBF80010A069C8B305
:100FD0003D49091D0968C1F3810102294AD002284F
:100FE000504607D0C8F8600000E03CE0FFF736FD4F
:100FF00004463BE04746C8F86000FFF72FFD064671
:1010000005E000BFFFF72AFD801B02282BD82868C7
:101010008001F7D4D4E907010843A16A2E4A4908A0
:1010200002EB0141626A41EA8211084394F82C10F4
:1010300040EA0161C9F8001001203866FFF70EFD93
:10104000044606E03EE000BFFFF708FD001B022853
:1010500009D828688001F7D534E000BFFFF7FEFC0F
:10106000001B022802D90320BDE8F88F2868800100
:10107000F4D427E00128F7D0D9F80000E26900F4A1
:10108000800191421CD1226A00F03F01914217D1A8
:1010900047F6C071626A0140B1EB821F10D1A26AAB
:1010A0004FF0FF3300F4403103EB5202B1EB024F3B
:1010B00006D194F82C1000F07060B0EB016F01D0F5
:1010C0000120D1E70020CFE704380240000047426A
:1010D000800E4742007000400000FFFF10B5401E28
:1010E000B0F1807F01D3012010BD4FF0E02460619A
:1010F0000F21601700F0CCFD0020A06107202061C7
:10110000002010BD70B590F83C20012A32D0012497
:1011100080F83C40022280F83D2003685A689D68B0
:1011200022F070060A6832435A60134B02689A42F2
:1011300014D0B2F1804F11D0104B9A420ED0104B08
:101140009A420BD00F4B9A4208D00F4B9A4205D0CF
:101150000E4B9A4202D00E4B9A4204D1496825F0B8
:1011600080031943916080F83D40002180F83C10D5
:10117000084670BD022070BD000001400004004020
:1011800000080040000C0040000401400040014005
:10119000001800402DE9F0410D46040003D094F8FA
:1011A0003D0018B108E00120BDE8F081002084F87E
:1011B0003C00204600F040F8022084F83D00206802
:1011C000816844F2070291438160211D206800F08C
:1011D00067FB226890689169166A2B68AF690343C0
:1011E00040F20330814341EA0721A868EF690843D0
:1011F0004FF6FC418843E96840EA0720014328692B
:101200002F6A000140EA0730084369686D6926F0DB
:10121000AA0646EA0515294393602268906154F8AE
:10122000460B0162012004F81F09E0752076E07684
:101230002077A0750020B7E730B587B004461421A9
:101240006846FEF7F5FF204824681E4D00221E491F
:1012500010380223AC4216D10C6844F002040C6032
:10126000096801F002010591016841F00201016085
:101270000068694600F00200059030200090CDE93A
:101280000132124818E0124DAC4219D10C6844F0FA
:1012900008040C60096801F008010591016841F03B
:1012A000010101600068694600F00100059003201B
:1012B0000090CDE901320748CDE90323FFF7D8FAC2
:1012C00007B030BD00040040403802400004024036
:1012D000000C00400000024070B590F83E600446EB
:1012E00090F83F5090F8423090F84320022021B10E
:1012F00004290ED0012E1BD114E0012E18D1012B90
:1013000016D184F83E0084F84200012200212068B2
:1013100020E0012D0CD1012A0AD184F83F0084F885
:10132000430014E0012D03D1012B01D1012A01D08A
:10133000012070BD84F83E0084F83F0084F842002C
:1013400084F8430001220021206800F00DFB0122F7
:101350000421206800F008FB2068016841F00101C9
:101360000160002070BD7047704770B5040004D064
:1013700094F83D00002510B106E0012070BD84F80E
:101380003C50204600F022F8242084F83D002068DC
:10139000C16821F40051C160204600F073FB206851
:1013A000016921F4904101612068416921F02A011D
:1013B00041612068C16841F40051C160256420206A
:1013C00084F83D0084F83E00002070BD2DE9F04710
:1013D00086B0054614216846FEF72AFF5D48DFF80F
:1013E0007081103802212B680024DFF868C10322C5
:1013F0008E0607154FF48079434538D1DCF800306C
:1014000043F40023CCF80030DCF8003003F4002370
:101410000593036843F004030360006800F00400D0
:1014200005909002CDE900010120CDE902020820DB
:10143000049069464848FFF71BFADFF824814749C2
:101440004046C8F80010C0E90164C0E90347C8F885
:101450001440C0E90649C8F82040C8F824406FE0AD
:10146000C5F83880C8F8385006B0BDE8F087DFF816
:10147000F4804FF0070A43452FD1364B1B1DD3F89C
:1014800000C04CF0100CC3F800C01B6803F0100340
:101490000593036843F002030360006800F0020054
:1014A0000590C0208DE81300CDE9032A69462E4837
:1014B000FFF7DEF9DFF8B8802C494046C8F8001085
:1014C000C0E90164C0E90347C8F81440C0E906490F
:1014D000C8F82040C8F8244032E0DFF8988043453F
:1014E000C2D1DCF8003043F40033CCF80030DCF833
:1014F000003003F400330593036843F001030360F5
:10150000006800F0010005900C208DE81300CDE983
:10151000032A69461848FFF7ABF91049DFF85C80E9
:1015200048314046C8F80010C0E90164C0E90347EB
:10153000C8F81440C0E90649C8F82040C8F824405B
:10154000FFF7E2F800288BD0FFF70BF888E70000E0
:10155000004C004040380240000802404060024019
:101560007402002000100140000402404064024068
:10157000D402002000440040000002403403002058
:1015800090F83E30202B0ED159B152B190F83C303A
:10159000012B08D0012380F83C300023036300F0C6
:1015A000F7BA01207047022070477047704700006B
:1015B0002DE9F843044690F83D001F4616460D46B7
:1015C00020284CD1C5B1BEB194F83C00012846D0CA
:1015D000012084F83C004FF00008C4F8408021202E
:1015E00084F83D00FFF73AFAA6848146E684A068B5
:1015F000B0F5805F03D004E00120BDE8F8832069E6
:1016000028B12E465FF0000584F83C800EE00026ED
:10161000FAE78021204600F0F3FAA0B9AEB116F83F
:10162000010B21684860E08C401EE084E08C4B4652
:101630004FF0000200970028EBD14FF04001204608
:1016400000F0DEFA30B10320D7E735F8020BC0F323
:101650000800E6E7202084F83D000020CDE70220C6
:10166000CBE7FEE7154808B5016841F400110160B9
:10167000016801F400110091016841F480010160EA
:101680000068002200F48000009011460D20FFF752
:1016900053FA0D20FFF742FA002211461020FFF7FF
:1016A0004BFA1020FFF73AFA002211463A20FFF7D2
:1016B00043FABDE808403A20FFF730BA303802401C
:1016C000114808B5016841F080010160016801F02E
:1016D00080010091016841F001010160016801F0A1
:1016E00001010091016841F004010160016801F00D
:1016F00004010091016841F002010160006800F0FE
:101700000200009008BD00003038024010B58CB0D7
:1017100024216846FEF78CFD0024164809941449DC
:101720000A94C0E900144FF6FF71C0E90241046158
:1017300084610320009001AA0220012182E81300A5
:10174000CDE90440CDE9061469460A480894FFF73C
:1017500021FD08B172B6FEE7099409A905480A946B
:10176000FFF7D0FC002801D072B6FEE70CB010BD28
:10177000000400405000002010B58CB024216846C1
:10178000FEF756FD00241648099414490A94C0E94E
:1017900000144FF6FF71C0E9024104618461032027
:1017A000009001AA0220012182E81300CDE9044043
:1017B000CDE9061469460A480894FFF7EBFC08B126
:1017C00072B6FEE7099409A905480A94FFF79AFC46
:1017D000002801D072B6FEE70CB010BD000C00402E
:1017E00098000020FEE7FEE77047704710B500F054
:1017F000E7FBBDE81040FFF737B9000030B593B004
:1018000030216846FEF714FD14210CA8FEF710FDE8
:101810001D480025016841F080510160006800F01A
:10182000805011901948016841F4804101600068BE
:10183000022400F4804011900120009000040190E7
:101840008001CDE9064008AA0420A82182E81300FF
:101850000B906846FFF78CFA08B172B6FEE70CA948
:101860000F2081E831004FF4A0500F904FF48050CA
:10187000109005210CA8FFF791F9002801D072B64D
:10188000FEE713B030BD0000403802400070004059
:101890000248016841F470010160704788ED00E082
:1018A000F0B50268254C264D264E274F274B4FF0AA
:1018B000804CA04209D0604507D0A84205D0B04274
:1018C00003D0B84201D0984204D122F0700E4A6889
:1018D00042EA0E02A0421BD0604519D0A84217D0A0
:1018E000B04215D0B84213D0984211D0184DA8423A
:1018F0000ED0184DA8420BD0174DA84208D0174D56
:10190000A84205D0164DA84202D0164DA84203D1D8
:1019100022F44075CA682A434D6922F080022A43A6
:1019200002608A68C2620A688262A04201D098425C
:1019300001D10969016301214161F0BD000001404D
:101940000004004000080040000C0040000401407A
:1019500000400140004401400048014000180040A0
:10196000001C00400020004010B501F01F030121C1
:10197000046A99408C430462016A9A4011430162EF
:1019800010BD70B5846B2068406994F83D10C0F3B9
:10199000C0100025212904D118B1E584204600F0AB
:1019A00067F82068406994F83E10C0F3801022293F
:1019B00004D118B1E585204600F042F8206C40F0D3
:1019C000100020642046FFF7CFFC70BD10B5014623
:1019D000806B09680968C9051BD40021C1850168AD
:1019E000CA6822F48072CA6001684A6922F0010262
:1019F0004A6101684A6922F040024A61202180F868
:101A00003E10016B012904D10168CA6822F010025E
:101A1000CA60016B012902D0FFF7C7FD10BD818D9F
:101A2000FFF7A1FC10BD10B5806B016B012902D03E
:101A3000FFF7BCFD10BD818D4908FFF794FC10BD78
:101A40000168CA6822F49072CA6001684A6922F08B
:101A500001024A61016B012904D10168CA6822F0C0
:101A60001002CA60202180F83E10002101637047F7
:101A70000168CA6822F0C002CA60202180F83D10C7
:101A80007047000070B5044600680169E26821F4FF
:101A90004051114301612169A068E269084361690D
:101AA000114308432168CA6849F20C639A43024310
:101AB000CA6020684169A26921F440711143416103
:101AC00031492068884202D03049884202D1FFF76C
:101AD0000FF901E0FFF7FCF8E26900231921642502
:101AE0003226B2F5004F626828D0A0FB0101930FA7
:101AF0009200FEF765FB0146B0FBF5F06FF01802AF
:101B0000504301EB800006EB0010B0FBF5F000F055
:101B1000F002B1FBF5F002EB0012B1FBF5F06FF053
:101B20001803584301EB800006EB0010B0FBF5F002
:101B300000F00F0021681044886070BDA0FB010117
:101B400092185B41FEF73CFB0146B0FBF5F0020149
:101B5000B1FBF5F06FF01803584301EB800006EB82
:101B6000C000B0FBF5F000F0F80002EB4002B1FB62
:101B7000F5F0584301EB800006EBC000B0FBF5F038
:101B800000F00700D6E700000010014000140140FB
:101B900038B58162828500251346044605642220FB
:101BA00084F83E00A26B1348D063A26B1248106405
:101BB000A26B1248D064A06B0A4605652168A06B31
:101BC000091DFEF70BFE206801684168009184F84A
:101BD0003C50C16841F48071C1602068416941F0A6
:101BE000010141612068416941F0400141610020EB
:101BF00038BD0000CD190008271A00088319000815
:101C00002DE9F041984617460E460446069D1DE014
:101C1000681C1BD02DB1FEF721FFA0EB0800A842E5
:101C200014D92068C16821F4D071C160206841696D
:101C300021F001014161202084F83D0084F83E003C
:101C4000002084F83C000320BDE8F0812068006893
:101C500036EA000004D00020B842D9D00020F3E7D3
:101C60000120F9E7FEE700000FB4084B10B504A906
:101C700002AA039800F034F8044602A9002000F0FC
:101C80000BF9204610BC5DF814FB0000991E0008FB
:101C90000907090E002804DB00F1E02080F8001499
:101CA000704700F00F0000F1E02080F8141D70472D
:101CB000004870474C00002002E008C8121F08C10D
:101CC000002AFAD170477047002001E001C1121FBD
:101CD000002AFBD17047002801DA404200B2704769
:101CE0002DE9FF4F8BB09A460F460546002606E0C9
:101CF00025280BD052460D9990476D1C761C2878EC
:101D00000028F5D10FB03046BDE8F08F0024A04682
:101D10000122604900E0044315F8013F203B02FA2C
:101D200003F00842F7D128782E2817D115F8010FB3
:101D300044F004042A280ED06FF02F022878A0F176
:101D4000300109290AD808EB880102EB410100EBB8
:101D500001086D1CF2E757F8048B6D1C2878692880
:101D60003ED006DC0028CDD063280BD0642804D1F7
:101D700036E0732810D075284BD052460D99904705
:101D8000761C85E017F8040B8DF8000000208DF814
:101D90000100E946012003E057F8049B4FF0FF30B3
:101DA00061074FF0000401D40AE0641C44450DDAD9
:101DB0008442FADB19F804100029F6D106E0641C0D
:101DC0008442FCDB19F804100029F8D1264404E011
:101DD00019F8010B52460D999047641EF8D257E04E
:101DE00001CF4FF00A0B002802DA40422D2102E019
:101DF000210504D52B218DF82410012103E0E107F2
:101E000005D02021F7E70DF1200908910CE0002111
:101E1000F9E701CF4FF00A0BF9E75946FEF743FA0D
:101E200001F1300209F8012D0028F6D1ADEB0900CF
:101E300000F1200B600701D44FF00108D84502DD06
:101E4000A8EB0B0000E000208046002406E009A873
:101E50005246005D0D999047641C761C0898844298
:101E6000F5DB04E0302052460D999047761CB8F11E
:101E70000001A8F10108F5DC05E019F8010B524654
:101E80000D999047761CBBF10001ABF1010BF4DC1E
:101E90006D1C34E7092801000A68531C0B601070A0
:101EA00070470000FEF7E8FDFFF7A8FCFFF708FC0D
:101EB000FFF7D8FB30482F494FF4E136002401608A
:101EC000C0E901640C25C460C0E904458461C461B3
:101ED000FFF74BFA08B172B6FEE7FFF717FC26488A
:101EE0002649883801604FF49641C0E90114C46066
:101EF000C0E904458461C461FFF737FA08B172B6DE
:101F0000FEE71D481E4944380160C0E90164C46011
:101F1000C0E904458461C461FFF727FA08B172B6CD
:101F2000FEE7FFF729FC1448022216494438FFF760
:101F300027FB14490122091F0F48FFF721FB042149
:101F40001148FFF7C9F9104804214830FFF7C4F9D8
:101F50000C4C6120641FE0701E20FEF777FC7A2095
:101F6000E0701E20FEF772FC00F02AF800F03CF84A
:101F70003220F7E70044004068010020004C004098
:101F80000010014005000020500000200B4800B563
:101F90000A490088491F40BA08814FF4616206E08F
:101FA000B1F9080090FBF2F302FB13000881B1F9CC
:101FB0000800FFF790FE9042F2DC00BD0500002013
:101FC00010B5074C2079411C21710A2807D90A2332
:101FD0000122E11C0348FFF7EBFA0020207110BD3D
:101FE00000000020240100200E4810B501680E48B2
:101FF0000E4A41811268828103892E301C0A447086
:1020000083700B0AC3700171110A4171827101461C
:10201000642308220648FFF7CBFABDE81040FEF71C
:1020200023BA00002404004000000020240C0040DB
:102030006801002070B5094C002561782E2909D06F
:10204000074A20781154401CC0B22070322800D9B1
:10205000257070BD00F006F8FAE7000000000020CF
:10206000AC0100202DE9F0413C4E3D4C002530787C
:102070002C2808D0257000203554401CC0B264289C
:10208000FAD3BDE8F081354A36A102F16400FFF7CA
:10209000EBFD324834496430FEF7D6F8206132490E
:1020A0000020FEF7D1F860612F490020FEF7CCF840
:1020B000A0612D490020FEF7C7F8E0612A49002001
:1020C000FEF7C2F8206228490020FEF7BDF86062E2
:1020D0006069FEF7DBF8A070A069FEF7D7F8204F23
:1020E00028373870E069FEF7D1F87870206AFEF77B
:1020F000CDF8F870606AFEF7C9F8387117486423A4
:1021000006223946CC38FFF753FA0020217802E046
:102110003554401CC0B28842FAD32570A0780128FB
:1021200002D07A20E070ACE76120E0700C490B48E7
:102130000A230122C91C8838FFF73AFA00203554D7
:10214000401CC0B26428FAD3BDE8F04104490348FA
:102150000A230122C91C8838FFF72ABAAC010020E3
:1021600000000020257300006C21000820000006FC
:10217000101600061016000000000000000001020A
:1021800003040607080900000000010203040040E0
:10219000404040404040404041414141414040403A
:1021A000404040404040404040404040404040056A
:1021B00002020202020202020202020202020220E1
:1021C00020202020202020202002020202020202E1
:1021D00090909090909010101010101010101010FF
:1021E0001010101010101010101002020202020243
:1021F000888888888888080808080808080808085F
:102200000808080808080808080802020202400036
:102210008F21000834220008000000205000000038
:10222000B81C000884220008500000204807000065
:10223000C81C0008000000000000000000000000B2
:10224000000000000000000000000000000000008E
:102250000000000000000000000000000000FF007F
:1022600000FF020000000000000300000100000069
:1022700010000000000000000024F4000000000036
:04228000000000005A
:040000050800018965
:00000001FF
